{
  "_format": "hh-sol-artifact-1",
  "contractName": "Feedback",
  "sourceName": "contracts/Feedback.sol",
  "abi": [
    {
      "inputs": [],
      "stateMutability": "nonpayable",
      "type": "constructor"
    },
    {
      "anonymous": false,
      "inputs": [
        {
          "indexed": true,
          "internalType": "address",
          "name": "user",
          "type": "address"
        },
        {
          "indexed": false,
          "internalType": "string",
          "name": "message",
          "type": "string"
        },
        {
          "indexed": false,
          "internalType": "uint256",
          "name": "timestamp",
          "type": "uint256"
        }
      ],
      "name": "FeedbackSubmitted",
      "type": "event"
    },
    {
      "inputs": [
        {
          "internalType": "uint256",
          "name": "",
          "type": "uint256"
        }
      ],
      "name": "feedbacks",
      "outputs": [
        {
          "internalType": "address",
          "name": "user",
          "type": "address"
        },
        {
          "internalType": "string",
          "name": "message",
          "type": "string"
        },
        {
          "internalType": "uint256",
          "name": "timestamp",
          "type": "uint256"
        }
      ],
      "stateMutability": "view",
      "type": "function"
    },
    {
      "inputs": [],
      "name": "getAllFeedback",
      "outputs": [
        {
          "components": [
            {
              "internalType": "address",
              "name": "user",
              "type": "address"
            },
            {
              "internalType": "string",
              "name": "message",
              "type": "string"
            },
            {
              "internalType": "uint256",
              "name": "timestamp",
              "type": "uint256"
            }
          ],
          "internalType": "struct Feedback.FeedbackItem[]",
          "name": "",
          "type": "tuple[]"
        }
      ],
      "stateMutability": "view",
      "type": "function"
    },
    {
      "inputs": [],
      "name": "getFeedbackCount",
      "outputs": [
        {
          "internalType": "uint256",
          "name": "",
          "type": "uint256"
        }
      ],
      "stateMutability": "view",
      "type": "function"
    },
    {
      "inputs": [
        {
          "internalType": "string",
          "name": "_message",
          "type": "string"
        }
      ],
      "name": "submitFeedback",
      "outputs": [],
      "stateMutability": "nonpayable",
      "type": "function"
    }
  ],
  "bytecode": "0x608060405234801561001057600080fd5b506100556040518060400160405280601781526020017f466565646261636b206973206e6f772072756e6e696e6700000000000000000081525061005a60201b60201c565b61023b565b6100f68160405160240161006e91906101ea565b6040516020818303038152906040527f41304fac000000000000000000000000000000000000000000000000000000007bffffffffffffffffffffffffffffffffffffffffffffffffffffffff19166020820180517bffffffffffffffffffffffffffffffffffffffffffffffffffffffff83818316178352505050506100f960201b60201c565b50565b61011a8161011561011d60201b6104321761013e60201b60201c565b60201c565b50565b60006a636f6e736f6c652e6c6f679050600080835160208501845afa505050565b61015060201b61045317819050919050565b61015861020c565b565b600081519050919050565b600082825260208201905092915050565b60005b83811015610194578082015181840152602081019050610179565b60008484015250505050565b6000601f19601f8301169050919050565b60006101bc8261015a565b6101c68185610165565b93506101d6818560208601610176565b6101df816101a0565b840191505092915050565b6000602082019050818103600083015261020481846101b1565b905092915050565b7f4e487b7100000000000000000000000000000000000000000000000000000000600052605160045260246000fd5b610c9a8061024a6000396000f3fe608060405234801561001057600080fd5b506004361061004c5760003560e01c80632bb8b0dc1461005157806338c5c86b14610083578063d3b68664146100a1578063e341a623146100bf575b600080fd5b61006b600480360381019061006691906104a7565b6100db565b60405161007a939291906105b4565b60405180910390f35b61008b6101bd565b60405161009891906105f2565b60405180910390f35b6100a96101c9565b6040516100b69190610787565b60405180910390f35b6100d960048036038101906100d491906108de565b61031a565b005b600081815481106100eb57600080fd5b90600052602060002090600302016000915090508060000160009054906101000a900473ffffffffffffffffffffffffffffffffffffffff169080600101805461013490610956565b80601f016020809104026020016040519081016040528092919081815260200182805461016090610956565b80156101ad5780601f10610182576101008083540402835291602001916101ad565b820191906000526020600020905b81548152906001019060200180831161019057829003601f168201915b5050505050908060020154905083565b60008080549050905090565b60606000805480602002602001604051908101604052809291908181526020016000905b8282101561031157838290600052602060002090600302016040518060600160405290816000820160009054906101000a900473ffffffffffffffffffffffffffffffffffffffff1673ffffffffffffffffffffffffffffffffffffffff1673ffffffffffffffffffffffffffffffffffffffff16815260200160018201805461027690610956565b80601f01602080910402602001604051908101604052809291908181526020018280546102a290610956565b80156102ef5780601f106102c4576101008083540402835291602001916102ef565b820191906000526020600020905b8154815290600101906020018083116102d257829003601f168201915b50505050508152602001600282015481525050815260200190600101906101ed565b50505050905090565b600060405180606001604052803373ffffffffffffffffffffffffffffffffffffffff16815260200183815260200142815250908060018154018082558091505060019003906000526020600020906003020160009091909190915060008201518160000160006101000a81548173ffffffffffffffffffffffffffffffffffffffff021916908373ffffffffffffffffffffffffffffffffffffffff16021790555060208201518160010190816103d29190610b33565b506040820151816002015550503373ffffffffffffffffffffffffffffffffffffffff167fa44edc2c3122d75f6eca14609b38b1f9e84dea9f4bc89419f056771b59c5014c8242604051610427929190610c05565b60405180910390a250565b60006a636f6e736f6c652e6c6f679050600080835160208501845afa505050565b61045b610c35565b565b6000604051905090565b600080fd5b600080fd5b6000819050919050565b61048481610471565b811461048f57600080fd5b50565b6000813590506104a18161047b565b92915050565b6000602082840312156104bd576104bc610467565b5b60006104cb84828501610492565b91505092915050565b600073ffffffffffffffffffffffffffffffffffffffff82169050919050565b60006104ff826104d4565b9050919050565b61050f816104f4565b82525050565b600081519050919050565b600082825260208201905092915050565b60005b8381101561054f578082015181840152602081019050610534565b60008484015250505050565b6000601f19601f8301169050919050565b600061057782610515565b6105818185610520565b9350610591818560208601610531565b61059a8161055b565b840191505092915050565b6105ae81610471565b82525050565b60006060820190506105c96000830186610506565b81810360208301526105db818561056c565b90506105ea60408301846105a5565b949350505050565b600060208201905061060760008301846105a5565b92915050565b600081519050919050565b600082825260208201905092915050565b6000819050602082019050919050565b610642816104f4565b82525050565b600082825260208201905092915050565b600061066482610515565b61066e8185610648565b935061067e818560208601610531565b6106878161055b565b840191505092915050565b61069b81610471565b82525050565b60006060830160008301516106b96000860182610639565b50602083015184820360208601526106d18282610659565b91505060408301516106e66040860182610692565b508091505092915050565b60006106fd83836106a1565b905092915050565b6000602082019050919050565b600061071d8261060d565b6107278185610618565b93508360208202850161073985610629565b8060005b85811015610775578484038952815161075685826106f1565b945061076183610705565b925060208a0199505060018101905061073d565b50829750879550505050505092915050565b600060208201905081810360008301526107a18184610712565b905092915050565b600080fd5b600080fd5b7f4e487b7100000000000000000000000000000000000000000000000000000000600052604160045260246000fd5b6107eb8261055b565b810181811067ffffffffffffffff8211171561080a576108096107b3565b5b80604052505050565b600061081d61045d565b905061082982826107e2565b919050565b600067ffffffffffffffff821115610849576108486107b3565b5b6108528261055b565b9050602081019050919050565b82818337600083830152505050565b600061088161087c8461082e565b610813565b90508281526020810184848401111561089d5761089c6107ae565b5b6108a884828561085f565b509392505050565b600082601f8301126108c5576108c46107a9565b5b81356108d584826020860161086e565b91505092915050565b6000602082840312156108f4576108f3610467565b5b600082013567ffffffffffffffff8111156109125761091161046c565b5b61091e848285016108b0565b91505092915050565b7f4e487b7100000000000000000000000000000000000000000000000000000000600052602260045260246000fd5b6000600282049050600182168061096e57607f821691505b60208210810361098157610980610927565b5b50919050565b60008190508160005260206000209050919050565b60006020601f8301049050919050565b600082821b905092915050565b6000600883026109e97fffffffffffffffffffffffffffffffffffffffffffffffffffffffffffffffff826109ac565b6109f386836109ac565b95508019841693508086168417925050509392505050565b6000819050919050565b6000610a30610a2b610a2684610471565b610a0b565b610471565b9050919050565b6000819050919050565b610a4a83610a15565b610a5e610a5682610a37565b8484546109b9565b825550505050565b600090565b610a73610a66565b610a7e818484610a41565b505050565b5b81811015610aa257610a97600082610a6b565b600181019050610a84565b5050565b601f821115610ae757610ab881610987565b610ac18461099c565b81016020851015610ad0578190505b610ae4610adc8561099c565b830182610a83565b50505b505050565b600082821c905092915050565b6000610b0a60001984600802610aec565b1980831691505092915050565b6000610b238383610af9565b9150826002028217905092915050565b610b3c82610515565b67ffffffffffffffff811115610b5557610b546107b3565b5b610b5f8254610956565b610b6a828285610aa6565b600060209050601f831160018114610b9d5760008415610b8b578287015190505b610b958582610b17565b865550610bfd565b601f198416610bab86610987565b60005b82811015610bd357848901518255600182019150602085019450602081019050610bae565b86831015610bf05784890151610bec601f891682610af9565b8355505b6001600288020188555050505b505050505050565b60006040820190508181036000830152610c1f818561056c565b9050610c2e60208301846105a5565b9392505050565b7f4e487b7100000000000000000000000000000000000000000000000000000000600052605160045260246000fdfea26469706673582212207b1c6dc5a2d7cb801ca3433adac2c9c91ecb3aedbb5a2f9782c0209258877a8e64736f6c634300081c0033",
  "linkReferences": {},
  "deployedLinkReferences": {}
}